{
  "contractName": "Election",
  "abi": [
    {
      "constant": true,
      "inputs": [],
      "name": "candidatesCount",
      "outputs": [
        {
          "name": "",
          "type": "uint256"
        }
      ],
      "payable": false,
      "stateMutability": "view",
      "type": "function"
    },
    {
      "constant": true,
      "inputs": [
        {
          "name": "",
          "type": "uint256"
        }
      ],
      "name": "candidates",
      "outputs": [
        {
          "name": "id",
          "type": "uint256"
        },
        {
          "name": "name",
          "type": "string"
        },
        {
          "name": "voteCount",
          "type": "uint256"
        }
      ],
      "payable": false,
      "stateMutability": "view",
      "type": "function"
    },
    {
      "constant": true,
      "inputs": [
        {
          "name": "",
          "type": "address"
        }
      ],
      "name": "voters",
      "outputs": [
        {
          "name": "",
          "type": "bool"
        }
      ],
      "payable": false,
      "stateMutability": "view",
      "type": "function"
    },
    {
      "inputs": [],
      "payable": false,
      "stateMutability": "nonpayable",
      "type": "constructor"
    },
    {
      "constant": false,
      "inputs": [
        {
          "name": "_candidateId",
          "type": "uint256"
        }
      ],
      "name": "vote",
      "outputs": [],
      "payable": false,
      "stateMutability": "nonpayable",
      "type": "function"
    }
  ],
  "bytecode": "0x608060405234801561001057600080fd5b5061005e6040805190810160405280600d81526020017f4d61726b7573204861736c6572000000000000000000000000000000000000008152506100b0640100000000026401000000009004565b6100ab6040805190810160405280600d81526020017f526f6e6e79205275656666656c000000000000000000000000000000000000008152506100b0640100000000026401000000009004565b6101d2565b6002600081548092919060010191905055506060604051908101604052806002548152602001828152602001600081525060016000600254815260200190815260200160002060008201518160000155602082015181600101908051906020019061011c92919061012d565b506040820151816002015590505050565b828054600181600116156101000203166002900490600052602060002090601f016020900481019282601f1061016e57805160ff191683800117855561019c565b8280016001018555821561019c579182015b8281111561019b578251825591602001919060010190610180565b5b5090506101a991906101ad565b5090565b6101cf91905b808211156101cb5760008160009055506001016101b3565b5090565b90565b6103d7806101e16000396000f300608060405260043610610062576000357c0100000000000000000000000000000000000000000000000000000000900463ffffffff1680630121b93f146100675780632d35a8a2146100945780633477ee2e146100bf578063a3ec138d14610173575b600080fd5b34801561007357600080fd5b50610092600480360381019080803590602001909291905050506101ce565b005b3480156100a057600080fd5b506100a96102c3565b6040518082815260200191505060405180910390f35b3480156100cb57600080fd5b506100ea600480360381019080803590602001909291905050506102c9565b6040518084815260200180602001838152602001828103825284818151815260200191508051906020019080838360005b8381101561013657808201518184015260208101905061011b565b50505050905090810190601f1680156101635780820380516001836020036101000a031916815260200191505b5094505050505060405180910390f35b34801561017f57600080fd5b506101b4600480360381019080803573ffffffffffffffffffffffffffffffffffffffff16906020019092919050505061038b565b604051808215151515815260200191505060405180910390f35b6000803373ffffffffffffffffffffffffffffffffffffffff1673ffffffffffffffffffffffffffffffffffffffff16815260200190815260200160002060009054906101000a900460ff1615151561022657600080fd5b60008111801561023857506002548111155b151561024357600080fd5b60016000803373ffffffffffffffffffffffffffffffffffffffff1673ffffffffffffffffffffffffffffffffffffffff16815260200190815260200160002060006101000a81548160ff021916908315150217905550600160008281526020019081526020016000206002016000815480929190600101919050555050565b60025481565b6001602052806000526040600020600091509050806000015490806001018054600181600116156101000203166002900480601f01602080910402602001604051908101604052809291908181526020018280546001816001161561010002031660029004801561037b5780601f106103505761010080835404028352916020019161037b565b820191906000526020600020905b81548152906001019060200180831161035e57829003601f168201915b5050505050908060020154905083565b60006020528060005260406000206000915054906101000a900460ff16815600a165627a7a72305820982f72b3c632d103292b711f354b45b8a37a2a95b208c09e0cb69c24027c40410029",
  "source": "pragma solidity ^0.4.2;\r\n\r\ncontract Election{\r\n\t// Model a Candidate\r\n\tstruct Candidate {\r\n\t\tuint id;\r\n\t\tstring name;\r\n\t\tuint voteCount;\r\n\t}\r\n\t// Store Candidates\r\n\t\r\n\t// Store accounts that have voted\r\n\tmapping (address => bool) public voters;\r\n\t// Fetch Candidate\r\n\t// there is no way to get length of mapping and to iterate over it.\r\n\t// because for every non valid key, we still get an empty value (candidate)\r\n\t// need to keep track with candidates Count\r\n\tmapping (uint => Candidate) public candidates;\r\n\t\r\n\t// Store Candidates Count, set to 0 by default\r\n\tuint public candidatesCount; \r\n\t\r\n\tfunction Election () public {\r\n\t\t// code is run when smart contract is deployed to blockchain\r\n\t\taddCandidate(\"Markus Hasler\");\r\n\t\taddCandidate(\"Ronny Rueffel\");\t\t\r\n\t}\r\n\t\r\n\t// local variable gets underscore\r\n\tfunction addCandidate (string _name) private {\r\n\t\tcandidatesCount ++;\r\n\t\tcandidates[candidatesCount] = Candidate(candidatesCount, _name, 0);\r\n\t}\r\n\t\r\n\tfunction vote (uint _candidateId) public {\r\n\t\t// require will send back unused gas\r\n\t\t// check that voter has not voted already and candidateId is valid\r\n\t\trequire(!voters[msg.sender]);\r\n\t\trequire(_candidateId > 0 && _candidateId <= candidatesCount);\r\n\t\t\r\n\t\t// record that voter has voted\r\n\t\tvoters[msg.sender] = true;\r\n\t\t// update candidate vote count\r\n\t\tcandidates[_candidateId].voteCount ++;\r\n\t}\r\n}",
  "sourcePath": "C:\\Users\\lucas\\Dropbox\\Private\\UNI\\Blockchain\\Ethereum - Smart Contracts\\Javascript\\P2\\election\\contracts\\Election.sol",
  "compiler": {
    "name": "solc",
    "version": "0.4.24+commit.e67f0147.Emscripten.clang"
  },
  "schemaVersion": "2.0.1",
  "updatedAt": "2018-10-20T21:32:52.664Z"
}